{
  "_format": "hh-sol-artifact-1",
  "contractName": "Battle",
  "sourceName": "contracts/battle.sol",
  "abi": [
    {
      "anonymous": false,
      "inputs": [
        {
          "indexed": true,
          "internalType": "address",
          "name": "owner",
          "type": "address"
        },
        {
          "indexed": true,
          "internalType": "address",
          "name": "approved",
          "type": "address"
        },
        {
          "indexed": true,
          "internalType": "uint256",
          "name": "tokenId",
          "type": "uint256"
        }
      ],
      "name": "Approval",
      "type": "event"
    },
    {
      "anonymous": false,
      "inputs": [
        {
          "indexed": true,
          "internalType": "address",
          "name": "from",
          "type": "address"
        },
        {
          "indexed": true,
          "internalType": "address",
          "name": "to",
          "type": "address"
        },
        {
          "indexed": true,
          "internalType": "uint256",
          "name": "tokenId",
          "type": "uint256"
        }
      ],
      "name": "Transfer",
      "type": "event"
    },
    {
      "inputs": [
        {
          "internalType": "address",
          "name": "_to",
          "type": "address"
        },
        {
          "internalType": "uint256",
          "name": "_tokenId",
          "type": "uint256"
        }
      ],
      "name": "approve",
      "outputs": [],
      "stateMutability": "nonpayable",
      "type": "function"
    },
    {
      "inputs": [
        {
          "internalType": "address",
          "name": "_owner",
          "type": "address"
        }
      ],
      "name": "balanceOf",
      "outputs": [
        {
          "internalType": "uint256",
          "name": "balance",
          "type": "uint256"
        }
      ],
      "stateMutability": "view",
      "type": "function"
    },
    {
      "inputs": [
        {
          "internalType": "uint256",
          "name": "pj1_id",
          "type": "uint256"
        },
        {
          "internalType": "uint256",
          "name": "pj2_id",
          "type": "uint256"
        }
      ],
      "name": "battle",
      "outputs": [],
      "stateMutability": "nonpayable",
      "type": "function"
    },
    {
      "inputs": [
        {
          "internalType": "string",
          "name": "_name",
          "type": "string"
        },
        {
          "internalType": "string",
          "name": "_class",
          "type": "string"
        }
      ],
      "name": "createPj",
      "outputs": [],
      "stateMutability": "nonpayable",
      "type": "function"
    },
    {
      "inputs": [
        {
          "internalType": "uint256",
          "name": "_tokenId",
          "type": "uint256"
        }
      ],
      "name": "getApproved",
      "outputs": [
        {
          "internalType": "address",
          "name": "operator",
          "type": "address"
        }
      ],
      "stateMutability": "view",
      "type": "function"
    },
    {
      "inputs": [],
      "name": "getPjsByOwner",
      "outputs": [
        {
          "components": [
            {
              "internalType": "uint256",
              "name": "id",
              "type": "uint256"
            },
            {
              "internalType": "string",
              "name": "rol",
              "type": "string"
            },
            {
              "internalType": "string",
              "name": "name",
              "type": "string"
            },
            {
              "internalType": "uint128",
              "name": "hp",
              "type": "uint128"
            },
            {
              "internalType": "uint128",
              "name": "level",
              "type": "uint128"
            },
            {
              "internalType": "uint128",
              "name": "attackPoints",
              "type": "uint128"
            },
            {
              "internalType": "uint128",
              "name": "defensePoints",
              "type": "uint128"
            },
            {
              "internalType": "uint128",
              "name": "agilityPoints",
              "type": "uint128"
            }
          ],
          "internalType": "struct PjFactory.Pj[]",
          "name": "",
          "type": "tuple[]"
        }
      ],
      "stateMutability": "view",
      "type": "function"
    },
    {
      "inputs": [
        {
          "internalType": "uint256",
          "name": "_tokenId",
          "type": "uint256"
        }
      ],
      "name": "ownerOf",
      "outputs": [
        {
          "internalType": "address",
          "name": "owner",
          "type": "address"
        }
      ],
      "stateMutability": "view",
      "type": "function"
    },
    {
      "inputs": [
        {
          "internalType": "uint256",
          "name": "",
          "type": "uint256"
        }
      ],
      "name": "pjToOwner",
      "outputs": [
        {
          "internalType": "address",
          "name": "",
          "type": "address"
        }
      ],
      "stateMutability": "view",
      "type": "function"
    },
    {
      "inputs": [
        {
          "internalType": "uint256",
          "name": "",
          "type": "uint256"
        }
      ],
      "name": "pjs",
      "outputs": [
        {
          "internalType": "uint256",
          "name": "id",
          "type": "uint256"
        },
        {
          "internalType": "string",
          "name": "rol",
          "type": "string"
        },
        {
          "internalType": "string",
          "name": "name",
          "type": "string"
        },
        {
          "internalType": "uint128",
          "name": "hp",
          "type": "uint128"
        },
        {
          "internalType": "uint128",
          "name": "level",
          "type": "uint128"
        },
        {
          "internalType": "uint128",
          "name": "attackPoints",
          "type": "uint128"
        },
        {
          "internalType": "uint128",
          "name": "defensePoints",
          "type": "uint128"
        },
        {
          "internalType": "uint128",
          "name": "agilityPoints",
          "type": "uint128"
        }
      ],
      "stateMutability": "view",
      "type": "function"
    },
    {
      "inputs": [
        {
          "internalType": "address",
          "name": "_from",
          "type": "address"
        },
        {
          "internalType": "address",
          "name": "_to",
          "type": "address"
        },
        {
          "internalType": "uint256",
          "name": "_tokenId",
          "type": "uint256"
        }
      ],
      "name": "transferFrom",
      "outputs": [],
      "stateMutability": "nonpayable",
      "type": "function"
    }
  ],
  "bytecode": "0x60806040526005600055600054600a610018919061019e565b600155600060055534801561002c57600080fd5b506101e9565b7f4e487b7100000000000000000000000000000000000000000000000000000000600052601160045260246000fd5b60008160011c9050919050565b6000808291508390505b60018511156100b85780860481111561009457610093610032565b5b60018516156100a35780820291505b80810290506100b185610061565b9450610078565b94509492505050565b6000826100d1576001905061018d565b816100df576000905061018d565b81600181146100f557600281146100ff5761012e565b600191505061018d565b60ff84111561011157610110610032565b5b8360020a91508482111561012857610127610032565b5b5061018d565b5060208310610133831016604e8410600b84101617156101635782820a90508381111561015e5761015d610032565b5b61018d565b610170848484600161006e565b9250905081840481111561018757610186610032565b5b81810290505b9392505050565b6000819050919050565b60006101a982610194565b91506101b483610194565b92506101e17fffffffffffffffffffffffffffffffffffffffffffffffffffffffffffffffff84846100c1565b905092915050565b612aba806101f86000396000f3fe608060405234801561001057600080fd5b506004361061009e5760003560e01c80636352211e116100665780636352211e1461014557806370a0823114610175578063e1a229f2146101a5578063f02e919e146101dc578063fd2ca062146101f85761009e565b8063081812fc146100a3578063095ea7b3146100d357806323b872dd146100ef5780632a0c52211461010b5780633c708c8a14610127575b600080fd5b6100bd60048036038101906100b89190611c0d565b610228565b6040516100ca9190611c7b565b60405180910390f35b6100ed60048036038101906100e89190611cc2565b610265565b005b61010960048036038101906101049190611d02565b610383565b005b61012560048036038101906101209190611d55565b610467565b005b61012f610bba565b60405161013c9190611fd8565b60405180910390f35b61015f600480360381019061015a9190611c0d565b610fdb565b60405161016c9190611c7b565b60405180910390f35b61018f600480360381019061018a9190611ffa565b611018565b60405161019c9190612036565b60405180910390f35b6101bf60048036038101906101ba9190611c0d565b611061565b6040516101d39897969594939291906120aa565b60405180910390f35b6101f660048036038101906101f1919061219b565b611255565b005b610212600480360381019061020d9190611c0d565b6113cf565b60405161021f9190611c7b565b60405180910390f35b60006006600083815260200190815260200160002060009054906101000a900473ffffffffffffffffffffffffffffffffffffffff169050919050565b806003600082815260200190815260200160002060009054906101000a900473ffffffffffffffffffffffffffffffffffffffff1673ffffffffffffffffffffffffffffffffffffffff163373ffffffffffffffffffffffffffffffffffffffff16146102d157600080fd5b826006600084815260200190815260200160002060006101000a81548173ffffffffffffffffffffffffffffffffffffffff021916908373ffffffffffffffffffffffffffffffffffffffff160217905550818373ffffffffffffffffffffffffffffffffffffffff163373ffffffffffffffffffffffffffffffffffffffff167f8c5be1e5ebec7d5bd14f71427d1e84f3dd0314c0f7b2291e5b200ac8c7c3b92560405160405180910390a4505050565b3373ffffffffffffffffffffffffffffffffffffffff166003600083815260200190815260200160002060009054906101000a900473ffffffffffffffffffffffffffffffffffffffff1673ffffffffffffffffffffffffffffffffffffffff16148061044e57503373ffffffffffffffffffffffffffffffffffffffff166006600083815260200190815260200160002060009054906101000a900473ffffffffffffffffffffffffffffffffffffffff1673ffffffffffffffffffffffffffffffffffffffff16145b61045757600080fd5b610462838383611402565b505050565b816003600082815260200190815260200160002060009054906101000a900473ffffffffffffffffffffffffffffffffffffffff1673ffffffffffffffffffffffffffffffffffffffff163373ffffffffffffffffffffffffffffffffffffffff16146104d357600080fd5b6000600284815481106104e9576104e861221c565b5b9060005260206000209060060201604051806101000160405290816000820154815260200160018201805461051d9061227a565b80601f01602080910402602001604051908101604052809291908181526020018280546105499061227a565b80156105965780601f1061056b57610100808354040283529160200191610596565b820191906000526020600020905b81548152906001019060200180831161057957829003601f168201915b505050505081526020016002820180546105af9061227a565b80601f01602080910402602001604051908101604052809291908181526020018280546105db9061227a565b80156106285780601f106105fd57610100808354040283529160200191610628565b820191906000526020600020905b81548152906001019060200180831161060b57829003601f168201915b505050505081526020016003820160009054906101000a90046fffffffffffffffffffffffffffffffff166fffffffffffffffffffffffffffffffff166fffffffffffffffffffffffffffffffff1681526020016003820160109054906101000a90046fffffffffffffffffffffffffffffffff166fffffffffffffffffffffffffffffffff166fffffffffffffffffffffffffffffffff1681526020016004820160009054906101000a90046fffffffffffffffffffffffffffffffff166fffffffffffffffffffffffffffffffff166fffffffffffffffffffffffffffffffff1681526020016004820160109054906101000a90046fffffffffffffffffffffffffffffffff166fffffffffffffffffffffffffffffffff166fffffffffffffffffffffffffffffffff1681526020016005820160009054906101000a90046fffffffffffffffffffffffffffffffff166fffffffffffffffffffffffffffffffff166fffffffffffffffffffffffffffffffff168152505090506000600284815481106107bb576107ba61221c565b5b906000526020600020906006020160405180610100016040529081600082015481526020016001820180546107ef9061227a565b80601f016020809104026020016040519081016040528092919081815260200182805461081b9061227a565b80156108685780601f1061083d57610100808354040283529160200191610868565b820191906000526020600020905b81548152906001019060200180831161084b57829003601f168201915b505050505081526020016002820180546108819061227a565b80601f01602080910402602001604051908101604052809291908181526020018280546108ad9061227a565b80156108fa5780601f106108cf576101008083540402835291602001916108fa565b820191906000526020600020905b8154815290600101906020018083116108dd57829003601f168201915b505050505081526020016003820160009054906101000a90046fffffffffffffffffffffffffffffffff166fffffffffffffffffffffffffffffffff166fffffffffffffffffffffffffffffffff1681526020016003820160109054906101000a90046fffffffffffffffffffffffffffffffff166fffffffffffffffffffffffffffffffff166fffffffffffffffffffffffffffffffff1681526020016004820160009054906101000a90046fffffffffffffffffffffffffffffffff166fffffffffffffffffffffffffffffffff166fffffffffffffffffffffffffffffffff1681526020016004820160109054906101000a90046fffffffffffffffffffffffffffffffff166fffffffffffffffffffffffffffffffff166fffffffffffffffffffffffffffffffff1681526020016005820160009054906101000a90046fffffffffffffffffffffffffffffffff166fffffffffffffffffffffffffffffffff166fffffffffffffffffffffffffffffffff1681525050905060008260600151905060008260600151905060008360e001516fffffffffffffffffffffffffffffffff168560e001516fffffffffffffffffffffffffffffffff16101590505b6000836fffffffffffffffffffffffffffffffff16118015610af257506000826fffffffffffffffffffffffffffffffff16115b15610bb0578015610b54576000610b09868661155e565b9050826fffffffffffffffffffffffffffffffff16816fffffffffffffffffffffffffffffffff1610610b3f5760009250610b4e565b8083610b4b91906122da565b92505b50610ba7565b6000610b60858761155e565b9050836fffffffffffffffffffffffffffffffff16816fffffffffffffffffffffffffffffffff1610610b965760009350610ba5565b8084610ba291906122da565b93505b505b80159050610abe565b5050505050505050565b60606000600460003373ffffffffffffffffffffffffffffffffffffffff1673ffffffffffffffffffffffffffffffffffffffff1681526020019081526020016000205467ffffffffffffffff811115610c1757610c1661231e565b5b604051908082528060200260200182016040528015610c5057816020015b610c3d611b2e565b815260200190600190039081610c355790505b5090506000805b600280549050811015610fd2573373ffffffffffffffffffffffffffffffffffffffff166003600083815260200190815260200160002060009054906101000a900473ffffffffffffffffffffffffffffffffffffffff1673ffffffffffffffffffffffffffffffffffffffff1603610fc55760028181548110610cde57610cdd61221c565b5b90600052602060002090600602016040518061010001604052908160008201548152602001600182018054610d129061227a565b80601f0160208091040260200160405190810160405280929190818152602001828054610d3e9061227a565b8015610d8b5780601f10610d6057610100808354040283529160200191610d8b565b820191906000526020600020905b815481529060010190602001808311610d6e57829003601f168201915b50505050508152602001600282018054610da49061227a565b80601f0160208091040260200160405190810160405280929190818152602001828054610dd09061227a565b8015610e1d5780601f10610df257610100808354040283529160200191610e1d565b820191906000526020600020905b815481529060010190602001808311610e0057829003601f168201915b505050505081526020016003820160009054906101000a90046fffffffffffffffffffffffffffffffff166fffffffffffffffffffffffffffffffff166fffffffffffffffffffffffffffffffff1681526020016003820160109054906101000a90046fffffffffffffffffffffffffffffffff166fffffffffffffffffffffffffffffffff166fffffffffffffffffffffffffffffffff1681526020016004820160009054906101000a90046fffffffffffffffffffffffffffffffff166fffffffffffffffffffffffffffffffff166fffffffffffffffffffffffffffffffff1681526020016004820160109054906101000a90046fffffffffffffffffffffffffffffffff166fffffffffffffffffffffffffffffffff166fffffffffffffffffffffffffffffffff1681526020016005820160009054906101000a90046fffffffffffffffffffffffffffffffff166fffffffffffffffffffffffffffffffff166fffffffffffffffffffffffffffffffff1681525050838381518110610fab57610faa61221c565b5b60200260200101819052508180610fc19061234d565b9250505b8080600101915050610c57565b50819250505090565b60006003600083815260200190815260200160002060009054906101000a900473ffffffffffffffffffffffffffffffffffffffff169050919050565b6000600460008373ffffffffffffffffffffffffffffffffffffffff1673ffffffffffffffffffffffffffffffffffffffff168152602001908152602001600020549050919050565b6002818154811061107157600080fd5b906000526020600020906006020160009150905080600001549080600101805461109a9061227a565b80601f01602080910402602001604051908101604052809291908181526020018280546110c69061227a565b80156111135780601f106110e857610100808354040283529160200191611113565b820191906000526020600020905b8154815290600101906020018083116110f657829003601f168201915b5050505050908060020180546111289061227a565b80601f01602080910402602001604051908101604052809291908181526020018280546111549061227a565b80156111a15780601f10611176576101008083540402835291602001916111a1565b820191906000526020600020905b81548152906001019060200180831161118457829003601f168201915b5050505050908060030160009054906101000a90046fffffffffffffffffffffffffffffffff16908060030160109054906101000a90046fffffffffffffffffffffffffffffffff16908060040160009054906101000a90046fffffffffffffffffffffffffffffffff16908060040160109054906101000a90046fffffffffffffffffffffffffffffffff16908060050160009054906101000a90046fffffffffffffffffffffffffffffffff16905088565b8181604051602001611266906123ec565b60405160208183030381529060405280519060200120828260405160200161128f929190612435565b6040516020818303038152906040528051906020012014806112fc57506040516020016112bb9061249a565b6040516020818303038152906040528051906020012082826040516020016112e4929190612435565b60405160208183030381529060405280519060200120145b806113525750604051602001611311906124fb565b60405160208183030381529060405280519060200120828260405160200161133a929190612435565b60405160208183030381529060405280519060200120145b611391576040517f08c379a00000000000000000000000000000000000000000000000000000000081526004016113889061255c565b60405180910390fd5b600061139d87876115e8565b90506064816113ac91906125ab565b816113b791906125dc565b90506113c68787838888611630565b50505050505050565b60036020528060005260406000206000915054906101000a900473ffffffffffffffffffffffffffffffffffffffff1681565b600460008373ffffffffffffffffffffffffffffffffffffffff1673ffffffffffffffffffffffffffffffffffffffff16815260200190815260200160002060008154809291906114529061234d565b9190505550600460008473ffffffffffffffffffffffffffffffffffffffff1673ffffffffffffffffffffffffffffffffffffffff16815260200190815260200160002060008154809291906114a790612610565b9190505550816003600083815260200190815260200160002060006101000a81548173ffffffffffffffffffffffffffffffffffffffff021916908373ffffffffffffffffffffffffffffffffffffffff160217905550808273ffffffffffffffffffffffffffffffffffffffff168473ffffffffffffffffffffffffffffffffffffffff167fddf252ad1be2c89b69c2b068fc378daa952ba7f163c4a11628f55a4df523b3ef60405160405180910390a4505050565b6000808260a001518460e001516115759190612639565b6103e88560e00151611587919061267d565b61159191906126ba565b6fffffffffffffffffffffffffffffffff1690506000816115b06119cc565b116115dd578360c001518560a001516115c991906126f8565b9050600081600f0b12156115dc57600190505b5b809250505092915050565b60008083836040516020016115fe929190612435565b6040516020818303038152906040528051906020012060001c90506001548161162791906125ab565b91505092915050565b6000806000806116408686611a27565b9350935093509350600060405180610100016040528089815260200188888080601f016020809104026020016040519081016040528093929190818152602001838380828437600081840152601f19601f8201169050808301925050505050505081526020018b8b8080601f016020809104026020016040519081016040528093929190818152602001838380828437600081840152601f19601f820116905080830192505050505050508152602001866fffffffffffffffffffffffffffffffff16815260200160016fffffffffffffffffffffffffffffffff168152602001856fffffffffffffffffffffffffffffffff168152602001846fffffffffffffffffffffffffffffffff168152602001836fffffffffffffffffffffffffffffffff16815250905060028190806001815401808255809150506001900390600052602060002090600602016000909190919091506000820151816000015560208201518160010190816117b4919061290c565b5060408201518160020190816117ca919061290c565b5060608201518160030160006101000a8154816fffffffffffffffffffffffffffffffff02191690836fffffffffffffffffffffffffffffffff16021790555060808201518160030160106101000a8154816fffffffffffffffffffffffffffffffff02191690836fffffffffffffffffffffffffffffffff16021790555060a08201518160040160006101000a8154816fffffffffffffffffffffffffffffffff02191690836fffffffffffffffffffffffffffffffff16021790555060c08201518160040160106101000a8154816fffffffffffffffffffffffffffffffff02191690836fffffffffffffffffffffffffffffffff16021790555060e08201518160050160006101000a8154816fffffffffffffffffffffffffffffffff02191690836fffffffffffffffffffffffffffffffff16021790555050503360036000600160028054905061191f91906125dc565b815260200190815260200160002060006101000a81548173ffffffffffffffffffffffffffffffffffffffff021916908373ffffffffffffffffffffffffffffffffffffffff160217905550600460003373ffffffffffffffffffffffffffffffffffffffff1673ffffffffffffffffffffffffffffffffffffffff16815260200190815260200160002060008154809291906119bb9061234d565b919050555050505050505050505050565b6000600560008154809291906119e19061234d565b9190505550606442336005546040516020016119ff93929190612a47565b6040516020818303038152906040528051906020012060001c611a2291906125ab565b905090565b600080600080600080600080604051602001611a42906123ec565b604051602081830303815290604052805190602001208a8a604051602001611a6b929190612435565b6040516020818303038152906040528051906020012003611a9b57600f935060059250600f915060079050611b15565b604051602001611aaa9061249a565b604051602081830303815290604052805190602001208a8a604051602001611ad3929190612435565b6040516020818303038152906040528051906020012003611b0357600c9350600a92506007915060059050611b14565b600a93506007925060089150600e90505b5b8383838397509750975097505050505092959194509250565b60405180610100016040528060008152602001606081526020016060815260200160006fffffffffffffffffffffffffffffffff16815260200160006fffffffffffffffffffffffffffffffff16815260200160006fffffffffffffffffffffffffffffffff16815260200160006fffffffffffffffffffffffffffffffff16815260200160006fffffffffffffffffffffffffffffffff1681525090565b600080fd5b600080fd5b6000819050919050565b611bea81611bd7565b8114611bf557600080fd5b50565b600081359050611c0781611be1565b92915050565b600060208284031215611c2357611c22611bcd565b5b6000611c3184828501611bf8565b91505092915050565b600073ffffffffffffffffffffffffffffffffffffffff82169050919050565b6000611c6582611c3a565b9050919050565b611c7581611c5a565b82525050565b6000602082019050611c906000830184611c6c565b92915050565b611c9f81611c5a565b8114611caa57600080fd5b50565b600081359050611cbc81611c96565b92915050565b60008060408385031215611cd957611cd8611bcd565b5b6000611ce785828601611cad565b9250506020611cf885828601611bf8565b9150509250929050565b600080600060608486031215611d1b57611d1a611bcd565b5b6000611d2986828701611cad565b9350506020611d3a86828701611cad565b9250506040611d4b86828701611bf8565b9150509250925092565b60008060408385031215611d6c57611d6b611bcd565b5b6000611d7a85828601611bf8565b9250506020611d8b85828601611bf8565b9150509250929050565b600081519050919050565b600082825260208201905092915050565b6000819050602082019050919050565b611dca81611bd7565b82525050565b600081519050919050565b600082825260208201905092915050565b60005b83811015611e0a578082015181840152602081019050611def565b60008484015250505050565b6000601f19601f8301169050919050565b6000611e3282611dd0565b611e3c8185611ddb565b9350611e4c818560208601611dec565b611e5581611e16565b840191505092915050565b60006fffffffffffffffffffffffffffffffff82169050919050565b611e8581611e60565b82525050565b600061010083016000830151611ea46000860182611dc1565b5060208301518482036020860152611ebc8282611e27565b91505060408301518482036040860152611ed68282611e27565b9150506060830151611eeb6060860182611e7c565b506080830151611efe6080860182611e7c565b5060a0830151611f1160a0860182611e7c565b5060c0830151611f2460c0860182611e7c565b5060e0830151611f3760e0860182611e7c565b508091505092915050565b6000611f4e8383611e8b565b905092915050565b6000602082019050919050565b6000611f6e82611d95565b611f788185611da0565b935083602082028501611f8a85611db1565b8060005b85811015611fc65784840389528151611fa78582611f42565b9450611fb283611f56565b925060208a01995050600181019050611f8e565b50829750879550505050505092915050565b60006020820190508181036000830152611ff28184611f63565b905092915050565b6000602082840312156120105761200f611bcd565b5b600061201e84828501611cad565b91505092915050565b61203081611bd7565b82525050565b600060208201905061204b6000830184612027565b92915050565b600082825260208201905092915050565b600061206d82611dd0565b6120778185612051565b9350612087818560208601611dec565b61209081611e16565b840191505092915050565b6120a481611e60565b82525050565b6000610100820190506120c0600083018b612027565b81810360208301526120d2818a612062565b905081810360408301526120e68189612062565b90506120f5606083018861209b565b612102608083018761209b565b61210f60a083018661209b565b61211c60c083018561209b565b61212960e083018461209b565b9998505050505050505050565b600080fd5b600080fd5b600080fd5b60008083601f84011261215b5761215a612136565b5b8235905067ffffffffffffffff8111156121785761217761213b565b5b60208301915083600182028301111561219457612193612140565b5b9250929050565b600080600080604085870312156121b5576121b4611bcd565b5b600085013567ffffffffffffffff8111156121d3576121d2611bd2565b5b6121df87828801612145565b9450945050602085013567ffffffffffffffff81111561220257612201611bd2565b5b61220e87828801612145565b925092505092959194509250565b7f4e487b7100000000000000000000000000000000000000000000000000000000600052603260045260246000fd5b7f4e487b7100000000000000000000000000000000000000000000000000000000600052602260045260246000fd5b6000600282049050600182168061229257607f821691505b6020821081036122a5576122a461224b565b5b50919050565b7f4e487b7100000000000000000000000000000000000000000000000000000000600052601160045260246000fd5b60006122e582611e60565b91506122f083611e60565b925082820390506fffffffffffffffffffffffffffffffff811115612318576123176122ab565b5b92915050565b7f4e487b7100000000000000000000000000000000000000000000000000000000600052604160045260246000fd5b600061235882611bd7565b91507fffffffffffffffffffffffffffffffffffffffffffffffffffffffffffffffff820361238a576123896122ab565b5b600182019050919050565b600081905092915050565b7f446566656e736500000000000000000000000000000000000000000000000000600082015250565b60006123d6600783612395565b91506123e1826123a0565b600782019050919050565b60006123f7826123c9565b9150819050919050565b82818337600083830152505050565b600061241c8385612395565b9350612429838584612401565b82840190509392505050565b6000612442828486612410565b91508190509392505050565b7f41747461636b0000000000000000000000000000000000000000000000000000600082015250565b6000612484600683612395565b915061248f8261244e565b600682019050919050565b60006124a582612477565b9150819050919050565b7f4167696c65000000000000000000000000000000000000000000000000000000600082015250565b60006124e5600583612395565b91506124f0826124af565b600582019050919050565b6000612506826124d8565b9150819050919050565b7f476976656e20436c617373206e6f7420666f756e640000000000000000000000600082015250565b6000612546601583612051565b915061255182612510565b602082019050919050565b6000602082019050818103600083015261257581612539565b9050919050565b7f4e487b7100000000000000000000000000000000000000000000000000000000600052601260045260246000fd5b60006125b682611bd7565b91506125c183611bd7565b9250826125d1576125d061257c565b5b828206905092915050565b60006125e782611bd7565b91506125f283611bd7565b925082820390508181111561260a576126096122ab565b5b92915050565b600061261b82611bd7565b91506000820361262e5761262d6122ab565b5b600182039050919050565b600061264482611e60565b915061264f83611e60565b925082820190506fffffffffffffffffffffffffffffffff811115612677576126766122ab565b5b92915050565b600061268882611e60565b915061269383611e60565b92508282026126a181611e60565b91508082146126b3576126b26122ab565b5b5092915050565b60006126c582611e60565b91506126d083611e60565b9250826126e0576126df61257c565b5b828204905092915050565b600081600f0b9050919050565b6000612703826126eb565b915061270e836126eb565b925082820390506f7fffffffffffffffffffffffffffffff81137fffffffffffffffffffffffffffffffff800000000000000000000000000000008212171561275a576127596122ab565b5b92915050565b60008190508160005260206000209050919050565b60006020601f8301049050919050565b600082821b905092915050565b6000600883026127c27fffffffffffffffffffffffffffffffffffffffffffffffffffffffffffffffff82612785565b6127cc8683612785565b95508019841693508086168417925050509392505050565b6000819050919050565b60006128096128046127ff84611bd7565b6127e4565b611bd7565b9050919050565b6000819050919050565b612823836127ee565b61283761282f82612810565b848454612792565b825550505050565b600090565b61284c61283f565b61285781848461281a565b505050565b5b8181101561287b57612870600082612844565b60018101905061285d565b5050565b601f8211156128c05761289181612760565b61289a84612775565b810160208510156128a9578190505b6128bd6128b585612775565b83018261285c565b50505b505050565b600082821c905092915050565b60006128e3600019846008026128c5565b1980831691505092915050565b60006128fc83836128d2565b9150826002028217905092915050565b61291582611dd0565b67ffffffffffffffff81111561292e5761292d61231e565b5b612938825461227a565b61294382828561287f565b600060209050601f8311600181146129765760008415612964578287015190505b61296e85826128f0565b8655506129d6565b601f19841661298486612760565b60005b828110156129ac57848901518255600182019150602085019450602081019050612987565b868310156129c957848901516129c5601f8916826128d2565b8355505b6001600288020188555050505b505050505050565b6000819050919050565b6129f96129f482611bd7565b6129de565b82525050565b60008160601b9050919050565b6000612a17826129ff565b9050919050565b6000612a2982612a0c565b9050919050565b612a41612a3c82611c5a565b612a1e565b82525050565b6000612a5382866129e8565b602082019150612a638285612a30565b601482019150612a7382846129e8565b60208201915081905094935050505056fea2646970667358221220a8811fccc7b8cfed68715415bff6d5a8f4658d807e5a6f2ce5adf6ecd61300f764736f6c634300081a0033",
  "linkReferences": {},
  "deployedLinkReferences": {}
}