{
  "_format": "hh-sol-artifact-1",
  "contractName": "PjOwnership",
  "sourceName": "contracts/pjownership.sol",
  "abi": [
    {
      "anonymous": false,
      "inputs": [
        {
          "indexed": true,
          "internalType": "address",
          "name": "owner",
          "type": "address"
        },
        {
          "indexed": true,
          "internalType": "address",
          "name": "approved",
          "type": "address"
        },
        {
          "indexed": true,
          "internalType": "uint256",
          "name": "tokenId",
          "type": "uint256"
        }
      ],
      "name": "Approval",
      "type": "event"
    },
    {
      "anonymous": false,
      "inputs": [
        {
          "indexed": true,
          "internalType": "address",
          "name": "from",
          "type": "address"
        },
        {
          "indexed": true,
          "internalType": "address",
          "name": "to",
          "type": "address"
        },
        {
          "indexed": true,
          "internalType": "uint256",
          "name": "tokenId",
          "type": "uint256"
        }
      ],
      "name": "Transfer",
      "type": "event"
    },
    {
      "inputs": [
        {
          "internalType": "address",
          "name": "_to",
          "type": "address"
        },
        {
          "internalType": "uint256",
          "name": "_tokenId",
          "type": "uint256"
        }
      ],
      "name": "approve",
      "outputs": [],
      "stateMutability": "nonpayable",
      "type": "function"
    },
    {
      "inputs": [
        {
          "internalType": "address",
          "name": "_owner",
          "type": "address"
        }
      ],
      "name": "balanceOf",
      "outputs": [
        {
          "internalType": "uint256",
          "name": "balance",
          "type": "uint256"
        }
      ],
      "stateMutability": "view",
      "type": "function"
    },
    {
      "inputs": [
        {
          "internalType": "string",
          "name": "_name",
          "type": "string"
        },
        {
          "internalType": "string",
          "name": "_class",
          "type": "string"
        }
      ],
      "name": "createPj",
      "outputs": [],
      "stateMutability": "nonpayable",
      "type": "function"
    },
    {
      "inputs": [
        {
          "internalType": "uint256",
          "name": "_tokenId",
          "type": "uint256"
        }
      ],
      "name": "getApproved",
      "outputs": [
        {
          "internalType": "address",
          "name": "operator",
          "type": "address"
        }
      ],
      "stateMutability": "view",
      "type": "function"
    },
    {
      "inputs": [],
      "name": "getPjsByOwner",
      "outputs": [
        {
          "components": [
            {
              "internalType": "uint256",
              "name": "id",
              "type": "uint256"
            },
            {
              "internalType": "string",
              "name": "rol",
              "type": "string"
            },
            {
              "internalType": "string",
              "name": "name",
              "type": "string"
            },
            {
              "internalType": "uint128",
              "name": "hp",
              "type": "uint128"
            },
            {
              "internalType": "uint128",
              "name": "level",
              "type": "uint128"
            },
            {
              "internalType": "uint128",
              "name": "attackPoints",
              "type": "uint128"
            },
            {
              "internalType": "uint128",
              "name": "defensePoints",
              "type": "uint128"
            },
            {
              "internalType": "uint128",
              "name": "agilityPoints",
              "type": "uint128"
            }
          ],
          "internalType": "struct PjFactory.Pj[]",
          "name": "",
          "type": "tuple[]"
        }
      ],
      "stateMutability": "view",
      "type": "function"
    },
    {
      "inputs": [
        {
          "internalType": "uint256",
          "name": "_tokenId",
          "type": "uint256"
        }
      ],
      "name": "ownerOf",
      "outputs": [
        {
          "internalType": "address",
          "name": "owner",
          "type": "address"
        }
      ],
      "stateMutability": "view",
      "type": "function"
    },
    {
      "inputs": [
        {
          "internalType": "uint256",
          "name": "",
          "type": "uint256"
        }
      ],
      "name": "pjToOwner",
      "outputs": [
        {
          "internalType": "address",
          "name": "",
          "type": "address"
        }
      ],
      "stateMutability": "view",
      "type": "function"
    },
    {
      "inputs": [
        {
          "internalType": "uint256",
          "name": "",
          "type": "uint256"
        }
      ],
      "name": "pjs",
      "outputs": [
        {
          "internalType": "uint256",
          "name": "id",
          "type": "uint256"
        },
        {
          "internalType": "string",
          "name": "rol",
          "type": "string"
        },
        {
          "internalType": "string",
          "name": "name",
          "type": "string"
        },
        {
          "internalType": "uint128",
          "name": "hp",
          "type": "uint128"
        },
        {
          "internalType": "uint128",
          "name": "level",
          "type": "uint128"
        },
        {
          "internalType": "uint128",
          "name": "attackPoints",
          "type": "uint128"
        },
        {
          "internalType": "uint128",
          "name": "defensePoints",
          "type": "uint128"
        },
        {
          "internalType": "uint128",
          "name": "agilityPoints",
          "type": "uint128"
        }
      ],
      "stateMutability": "view",
      "type": "function"
    },
    {
      "inputs": [
        {
          "internalType": "address",
          "name": "_from",
          "type": "address"
        },
        {
          "internalType": "address",
          "name": "_to",
          "type": "address"
        },
        {
          "internalType": "uint256",
          "name": "_tokenId",
          "type": "uint256"
        }
      ],
      "name": "transferFrom",
      "outputs": [],
      "stateMutability": "nonpayable",
      "type": "function"
    }
  ],
  "bytecode": "0x60806040526005600055600054600a610018919061019e565b600155600060055534801561002c57600080fd5b506101e9565b7f4e487b7100000000000000000000000000000000000000000000000000000000600052601160045260246000fd5b60008160011c9050919050565b6000808291508390505b60018511156100b85780860481111561009457610093610032565b5b60018516156100a35780820291505b80810290506100b185610061565b9450610078565b94509492505050565b6000826100d1576001905061018d565b816100df576000905061018d565b81600181146100f557600281146100ff5761012e565b600191505061018d565b60ff84111561011157610110610032565b5b8360020a91508482111561012857610127610032565b5b5061018d565b5060208310610133831016604e8410600b84101617156101635782820a90508381111561015e5761015d610032565b5b61018d565b610170848484600161006e565b9250905081840481111561018757610186610032565b5b81810290505b9392505050565b6000819050919050565b60006101a982610194565b91506101b483610194565b92506101e17fffffffffffffffffffffffffffffffffffffffffffffffffffffffffffffffff84846100c1565b905092915050565b61200a806101f86000396000f3fe608060405234801561001057600080fd5b50600436106100935760003560e01c80636352211e116100665780636352211e1461011e57806370a082311461014e578063e1a229f21461017e578063f02e919e146101b5578063fd2ca062146101d157610093565b8063081812fc14610098578063095ea7b3146100c857806323b872dd146100e45780633c708c8a14610100575b600080fd5b6100b260048036038101906100ad91906113ae565b610201565b6040516100bf919061141c565b60405180910390f35b6100e260048036038101906100dd9190611463565b61023e565b005b6100fe60048036038101906100f991906114a3565b61035c565b005b610108610440565b6040516101159190611739565b60405180910390f35b610138600480360381019061013391906113ae565b610861565b604051610145919061141c565b60405180910390f35b6101686004803603810190610163919061175b565b61089e565b6040516101759190611797565b60405180910390f35b610198600480360381019061019391906113ae565b6108e7565b6040516101ac98979695949392919061180b565b60405180910390f35b6101cf60048036038101906101ca91906118fc565b610adb565b005b6101eb60048036038101906101e691906113ae565b610c55565b6040516101f8919061141c565b60405180910390f35b60006006600083815260200190815260200160002060009054906101000a900473ffffffffffffffffffffffffffffffffffffffff169050919050565b806003600082815260200190815260200160002060009054906101000a900473ffffffffffffffffffffffffffffffffffffffff1673ffffffffffffffffffffffffffffffffffffffff163373ffffffffffffffffffffffffffffffffffffffff16146102aa57600080fd5b826006600084815260200190815260200160002060006101000a81548173ffffffffffffffffffffffffffffffffffffffff021916908373ffffffffffffffffffffffffffffffffffffffff160217905550818373ffffffffffffffffffffffffffffffffffffffff163373ffffffffffffffffffffffffffffffffffffffff167f8c5be1e5ebec7d5bd14f71427d1e84f3dd0314c0f7b2291e5b200ac8c7c3b92560405160405180910390a4505050565b3373ffffffffffffffffffffffffffffffffffffffff166003600083815260200190815260200160002060009054906101000a900473ffffffffffffffffffffffffffffffffffffffff1673ffffffffffffffffffffffffffffffffffffffff16148061042757503373ffffffffffffffffffffffffffffffffffffffff166006600083815260200190815260200160002060009054906101000a900473ffffffffffffffffffffffffffffffffffffffff1673ffffffffffffffffffffffffffffffffffffffff16145b61043057600080fd5b61043b838383610c88565b505050565b60606000600460003373ffffffffffffffffffffffffffffffffffffffff1673ffffffffffffffffffffffffffffffffffffffff1681526020019081526020016000205467ffffffffffffffff81111561049d5761049c61197d565b5b6040519080825280602002602001820160405280156104d657816020015b6104c36112cf565b8152602001906001900390816104bb5790505b5090506000805b600280549050811015610858573373ffffffffffffffffffffffffffffffffffffffff166003600083815260200190815260200160002060009054906101000a900473ffffffffffffffffffffffffffffffffffffffff1673ffffffffffffffffffffffffffffffffffffffff160361084b5760028181548110610564576105636119ac565b5b9060005260206000209060060201604051806101000160405290816000820154815260200160018201805461059890611a0a565b80601f01602080910402602001604051908101604052809291908181526020018280546105c490611a0a565b80156106115780601f106105e657610100808354040283529160200191610611565b820191906000526020600020905b8154815290600101906020018083116105f457829003601f168201915b5050505050815260200160028201805461062a90611a0a565b80601f016020809104026020016040519081016040528092919081815260200182805461065690611a0a565b80156106a35780601f10610678576101008083540402835291602001916106a3565b820191906000526020600020905b81548152906001019060200180831161068657829003601f168201915b505050505081526020016003820160009054906101000a90046fffffffffffffffffffffffffffffffff166fffffffffffffffffffffffffffffffff166fffffffffffffffffffffffffffffffff1681526020016003820160109054906101000a90046fffffffffffffffffffffffffffffffff166fffffffffffffffffffffffffffffffff166fffffffffffffffffffffffffffffffff1681526020016004820160009054906101000a90046fffffffffffffffffffffffffffffffff166fffffffffffffffffffffffffffffffff166fffffffffffffffffffffffffffffffff1681526020016004820160109054906101000a90046fffffffffffffffffffffffffffffffff166fffffffffffffffffffffffffffffffff166fffffffffffffffffffffffffffffffff1681526020016005820160009054906101000a90046fffffffffffffffffffffffffffffffff166fffffffffffffffffffffffffffffffff166fffffffffffffffffffffffffffffffff1681525050838381518110610831576108306119ac565b5b6020026020010181905250818061084790611a6a565b9250505b80806001019150506104dd565b50819250505090565b60006003600083815260200190815260200160002060009054906101000a900473ffffffffffffffffffffffffffffffffffffffff169050919050565b6000600460008373ffffffffffffffffffffffffffffffffffffffff1673ffffffffffffffffffffffffffffffffffffffff168152602001908152602001600020549050919050565b600281815481106108f757600080fd5b906000526020600020906006020160009150905080600001549080600101805461092090611a0a565b80601f016020809104026020016040519081016040528092919081815260200182805461094c90611a0a565b80156109995780601f1061096e57610100808354040283529160200191610999565b820191906000526020600020905b81548152906001019060200180831161097c57829003601f168201915b5050505050908060020180546109ae90611a0a565b80601f01602080910402602001604051908101604052809291908181526020018280546109da90611a0a565b8015610a275780601f106109fc57610100808354040283529160200191610a27565b820191906000526020600020905b815481529060010190602001808311610a0a57829003601f168201915b5050505050908060030160009054906101000a90046fffffffffffffffffffffffffffffffff16908060030160109054906101000a90046fffffffffffffffffffffffffffffffff16908060040160009054906101000a90046fffffffffffffffffffffffffffffffff16908060040160109054906101000a90046fffffffffffffffffffffffffffffffff16908060050160009054906101000a90046fffffffffffffffffffffffffffffffff16905088565b8181604051602001610aec90611b09565b604051602081830303815290604052805190602001208282604051602001610b15929190611b52565b604051602081830303815290604052805190602001201480610b825750604051602001610b4190611bb7565b604051602081830303815290604052805190602001208282604051602001610b6a929190611b52565b60405160208183030381529060405280519060200120145b80610bd85750604051602001610b9790611c18565b604051602081830303815290604052805190602001208282604051602001610bc0929190611b52565b60405160208183030381529060405280519060200120145b610c17576040517f08c379a0000000000000000000000000000000000000000000000000000000008152600401610c0e90611c79565b60405180910390fd5b6000610c238787610de4565b9050606481610c329190611cc8565b81610c3d9190611cf9565b9050610c4c8787838888610e2c565b50505050505050565b60036020528060005260406000206000915054906101000a900473ffffffffffffffffffffffffffffffffffffffff1681565b600460008373ffffffffffffffffffffffffffffffffffffffff1673ffffffffffffffffffffffffffffffffffffffff1681526020019081526020016000206000815480929190610cd890611a6a565b9190505550600460008473ffffffffffffffffffffffffffffffffffffffff1673ffffffffffffffffffffffffffffffffffffffff1681526020019081526020016000206000815480929190610d2d90611d2d565b9190505550816003600083815260200190815260200160002060006101000a81548173ffffffffffffffffffffffffffffffffffffffff021916908373ffffffffffffffffffffffffffffffffffffffff160217905550808273ffffffffffffffffffffffffffffffffffffffff168473ffffffffffffffffffffffffffffffffffffffff167fddf252ad1be2c89b69c2b068fc378daa952ba7f163c4a11628f55a4df523b3ef60405160405180910390a4505050565b6000808383604051602001610dfa929190611b52565b6040516020818303038152906040528051906020012060001c905060015481610e239190611cc8565b91505092915050565b600080600080610e3c86866111c8565b9350935093509350600060405180610100016040528089815260200188888080601f016020809104026020016040519081016040528093929190818152602001838380828437600081840152601f19601f8201169050808301925050505050505081526020018b8b8080601f016020809104026020016040519081016040528093929190818152602001838380828437600081840152601f19601f820116905080830192505050505050508152602001866fffffffffffffffffffffffffffffffff16815260200160016fffffffffffffffffffffffffffffffff168152602001856fffffffffffffffffffffffffffffffff168152602001846fffffffffffffffffffffffffffffffff168152602001836fffffffffffffffffffffffffffffffff1681525090506002819080600181540180825580915050600190039060005260206000209060060201600090919091909150600082015181600001556020820151816001019081610fb09190611f02565b506040820151816002019081610fc69190611f02565b5060608201518160030160006101000a8154816fffffffffffffffffffffffffffffffff02191690836fffffffffffffffffffffffffffffffff16021790555060808201518160030160106101000a8154816fffffffffffffffffffffffffffffffff02191690836fffffffffffffffffffffffffffffffff16021790555060a08201518160040160006101000a8154816fffffffffffffffffffffffffffffffff02191690836fffffffffffffffffffffffffffffffff16021790555060c08201518160040160106101000a8154816fffffffffffffffffffffffffffffffff02191690836fffffffffffffffffffffffffffffffff16021790555060e08201518160050160006101000a8154816fffffffffffffffffffffffffffffffff02191690836fffffffffffffffffffffffffffffffff16021790555050503360036000600160028054905061111b9190611cf9565b815260200190815260200160002060006101000a81548173ffffffffffffffffffffffffffffffffffffffff021916908373ffffffffffffffffffffffffffffffffffffffff160217905550600460003373ffffffffffffffffffffffffffffffffffffffff1673ffffffffffffffffffffffffffffffffffffffff16815260200190815260200160002060008154809291906111b790611a6a565b919050555050505050505050505050565b6000806000806000806000806040516020016111e390611b09565b604051602081830303815290604052805190602001208a8a60405160200161120c929190611b52565b604051602081830303815290604052805190602001200361123c576032935060059250600a9150600790506112b6565b60405160200161124b90611bb7565b604051602081830303815290604052805190602001208a8a604051602001611274929190611b52565b60405160208183030381529060405280519060200120036112a457602a9350600a925060079150600590506112b5565b603c93506007925060089150600e90505b5b8383838397509750975097505050505092959194509250565b60405180610100016040528060008152602001606081526020016060815260200160006fffffffffffffffffffffffffffffffff16815260200160006fffffffffffffffffffffffffffffffff16815260200160006fffffffffffffffffffffffffffffffff16815260200160006fffffffffffffffffffffffffffffffff16815260200160006fffffffffffffffffffffffffffffffff1681525090565b600080fd5b600080fd5b6000819050919050565b61138b81611378565b811461139657600080fd5b50565b6000813590506113a881611382565b92915050565b6000602082840312156113c4576113c361136e565b5b60006113d284828501611399565b91505092915050565b600073ffffffffffffffffffffffffffffffffffffffff82169050919050565b6000611406826113db565b9050919050565b611416816113fb565b82525050565b6000602082019050611431600083018461140d565b92915050565b611440816113fb565b811461144b57600080fd5b50565b60008135905061145d81611437565b92915050565b6000806040838503121561147a5761147961136e565b5b60006114888582860161144e565b925050602061149985828601611399565b9150509250929050565b6000806000606084860312156114bc576114bb61136e565b5b60006114ca8682870161144e565b93505060206114db8682870161144e565b92505060406114ec86828701611399565b9150509250925092565b600081519050919050565b600082825260208201905092915050565b6000819050602082019050919050565b61152b81611378565b82525050565b600081519050919050565b600082825260208201905092915050565b60005b8381101561156b578082015181840152602081019050611550565b60008484015250505050565b6000601f19601f8301169050919050565b600061159382611531565b61159d818561153c565b93506115ad81856020860161154d565b6115b681611577565b840191505092915050565b60006fffffffffffffffffffffffffffffffff82169050919050565b6115e6816115c1565b82525050565b6000610100830160008301516116056000860182611522565b506020830151848203602086015261161d8282611588565b915050604083015184820360408601526116378282611588565b915050606083015161164c60608601826115dd565b50608083015161165f60808601826115dd565b5060a083015161167260a08601826115dd565b5060c083015161168560c08601826115dd565b5060e083015161169860e08601826115dd565b508091505092915050565b60006116af83836115ec565b905092915050565b6000602082019050919050565b60006116cf826114f6565b6116d98185611501565b9350836020820285016116eb85611512565b8060005b85811015611727578484038952815161170885826116a3565b9450611713836116b7565b925060208a019950506001810190506116ef565b50829750879550505050505092915050565b6000602082019050818103600083015261175381846116c4565b905092915050565b6000602082840312156117715761177061136e565b5b600061177f8482850161144e565b91505092915050565b61179181611378565b82525050565b60006020820190506117ac6000830184611788565b92915050565b600082825260208201905092915050565b60006117ce82611531565b6117d881856117b2565b93506117e881856020860161154d565b6117f181611577565b840191505092915050565b611805816115c1565b82525050565b600061010082019050611821600083018b611788565b8181036020830152611833818a6117c3565b9050818103604083015261184781896117c3565b905061185660608301886117fc565b61186360808301876117fc565b61187060a08301866117fc565b61187d60c08301856117fc565b61188a60e08301846117fc565b9998505050505050505050565b600080fd5b600080fd5b600080fd5b60008083601f8401126118bc576118bb611897565b5b8235905067ffffffffffffffff8111156118d9576118d861189c565b5b6020830191508360018202830111156118f5576118f46118a1565b5b9250929050565b600080600080604085870312156119165761191561136e565b5b600085013567ffffffffffffffff81111561193457611933611373565b5b611940878288016118a6565b9450945050602085013567ffffffffffffffff81111561196357611962611373565b5b61196f878288016118a6565b925092505092959194509250565b7f4e487b7100000000000000000000000000000000000000000000000000000000600052604160045260246000fd5b7f4e487b7100000000000000000000000000000000000000000000000000000000600052603260045260246000fd5b7f4e487b7100000000000000000000000000000000000000000000000000000000600052602260045260246000fd5b60006002820490506001821680611a2257607f821691505b602082108103611a3557611a346119db565b5b50919050565b7f4e487b7100000000000000000000000000000000000000000000000000000000600052601160045260246000fd5b6000611a7582611378565b91507fffffffffffffffffffffffffffffffffffffffffffffffffffffffffffffffff8203611aa757611aa6611a3b565b5b600182019050919050565b600081905092915050565b7f446566656e736500000000000000000000000000000000000000000000000000600082015250565b6000611af3600783611ab2565b9150611afe82611abd565b600782019050919050565b6000611b1482611ae6565b9150819050919050565b82818337600083830152505050565b6000611b398385611ab2565b9350611b46838584611b1e565b82840190509392505050565b6000611b5f828486611b2d565b91508190509392505050565b7f41747461636b0000000000000000000000000000000000000000000000000000600082015250565b6000611ba1600683611ab2565b9150611bac82611b6b565b600682019050919050565b6000611bc282611b94565b9150819050919050565b7f4167696c65000000000000000000000000000000000000000000000000000000600082015250565b6000611c02600583611ab2565b9150611c0d82611bcc565b600582019050919050565b6000611c2382611bf5565b9150819050919050565b7f476976656e20436c617373206e6f7420666f756e640000000000000000000000600082015250565b6000611c636015836117b2565b9150611c6e82611c2d565b602082019050919050565b60006020820190508181036000830152611c9281611c56565b9050919050565b7f4e487b7100000000000000000000000000000000000000000000000000000000600052601260045260246000fd5b6000611cd382611378565b9150611cde83611378565b925082611cee57611ced611c99565b5b828206905092915050565b6000611d0482611378565b9150611d0f83611378565b9250828203905081811115611d2757611d26611a3b565b5b92915050565b6000611d3882611378565b915060008203611d4b57611d4a611a3b565b5b600182039050919050565b60008190508160005260206000209050919050565b60006020601f8301049050919050565b600082821b905092915050565b600060088302611db87fffffffffffffffffffffffffffffffffffffffffffffffffffffffffffffffff82611d7b565b611dc28683611d7b565b95508019841693508086168417925050509392505050565b6000819050919050565b6000611dff611dfa611df584611378565b611dda565b611378565b9050919050565b6000819050919050565b611e1983611de4565b611e2d611e2582611e06565b848454611d88565b825550505050565b600090565b611e42611e35565b611e4d818484611e10565b505050565b5b81811015611e7157611e66600082611e3a565b600181019050611e53565b5050565b601f821115611eb657611e8781611d56565b611e9084611d6b565b81016020851015611e9f578190505b611eb3611eab85611d6b565b830182611e52565b50505b505050565b600082821c905092915050565b6000611ed960001984600802611ebb565b1980831691505092915050565b6000611ef28383611ec8565b9150826002028217905092915050565b611f0b82611531565b67ffffffffffffffff811115611f2457611f2361197d565b5b611f2e8254611a0a565b611f39828285611e75565b600060209050601f831160018114611f6c5760008415611f5a578287015190505b611f648582611ee6565b865550611fcc565b601f198416611f7a86611d56565b60005b82811015611fa257848901518255600182019150602085019450602081019050611f7d565b86831015611fbf5784890151611fbb601f891682611ec8565b8355505b6001600288020188555050505b50505050505056fea2646970667358221220e1f8d40e429ab07262056ee0adac564f2f0be9d2922386495f329ffc13e3ef0c64736f6c634300081a0033",
  "linkReferences": {},
  "deployedLinkReferences": {}
}